{
  "_format": "hh-sol-artifact-1",
  "contractName": "Web3RSVP",
  "sourceName": "contracts/Web3RSVP.sol",
  "abi": [
    {
      "anonymous": false,
      "inputs": [
        {
          "indexed": false,
          "internalType": "bytes32",
          "name": "eID",
          "type": "bytes32"
        },
        {
          "indexed": false,
          "internalType": "address",
          "name": "attendeeAddress",
          "type": "address"
        }
      ],
      "name": "NewAttendeeCheckIn",
      "type": "event"
    },
    {
      "anonymous": false,
      "inputs": [
        {
          "indexed": false,
          "internalType": "bytes32",
          "name": "eID",
          "type": "bytes32"
        },
        {
          "indexed": false,
          "internalType": "string",
          "name": "eDataCID",
          "type": "string"
        },
        {
          "indexed": false,
          "internalType": "address",
          "name": "eCreator",
          "type": "address"
        },
        {
          "indexed": false,
          "internalType": "uint256",
          "name": "eTimeStart",
          "type": "uint256"
        },
        {
          "indexed": false,
          "internalType": "uint256",
          "name": "eCapacity",
          "type": "uint256"
        },
        {
          "indexed": false,
          "internalType": "uint256",
          "name": "eDepositAmount",
          "type": "uint256"
        }
      ],
      "name": "NewEventCreated",
      "type": "event"
    },
    {
      "anonymous": false,
      "inputs": [
        {
          "indexed": false,
          "internalType": "bytes32",
          "name": "eID",
          "type": "bytes32"
        },
        {
          "indexed": false,
          "internalType": "address",
          "name": "registrantAddress",
          "type": "address"
        }
      ],
      "name": "NewRegistrantAdded",
      "type": "event"
    },
    {
      "anonymous": false,
      "inputs": [
        {
          "indexed": false,
          "internalType": "bytes32",
          "name": "eID",
          "type": "bytes32"
        },
        {
          "indexed": false,
          "internalType": "uint256",
          "name": "unclaimedDepositAmount",
          "type": "uint256"
        }
      ],
      "name": "UnclaimedDepositPaidOut",
      "type": "event"
    },
    {
      "inputs": [
        {
          "internalType": "bytes32",
          "name": "eID",
          "type": "bytes32"
        }
      ],
      "name": "addNewRegistrant",
      "outputs": [],
      "stateMutability": "payable",
      "type": "function"
    },
    {
      "inputs": [
        {
          "internalType": "bytes32",
          "name": "eID",
          "type": "bytes32"
        }
      ],
      "name": "checkInAllRegistrants",
      "outputs": [],
      "stateMutability": "nonpayable",
      "type": "function"
    },
    {
      "inputs": [
        {
          "internalType": "bytes32",
          "name": "eID",
          "type": "bytes32"
        },
        {
          "internalType": "address",
          "name": "registrant",
          "type": "address"
        }
      ],
      "name": "checkInRegistrant",
      "outputs": [],
      "stateMutability": "nonpayable",
      "type": "function"
    },
    {
      "inputs": [
        {
          "internalType": "string",
          "name": "eDataCID",
          "type": "string"
        },
        {
          "internalType": "uint256",
          "name": "eTimeStart",
          "type": "uint256"
        },
        {
          "internalType": "uint256",
          "name": "eCapacity",
          "type": "uint256"
        },
        {
          "internalType": "uint256",
          "name": "eDepositAmount",
          "type": "uint256"
        }
      ],
      "name": "createEvent",
      "outputs": [],
      "stateMutability": "nonpayable",
      "type": "function"
    },
    {
      "inputs": [
        {
          "internalType": "bytes32",
          "name": "",
          "type": "bytes32"
        }
      ],
      "name": "idToEventMapping",
      "outputs": [
        {
          "internalType": "bytes32",
          "name": "eID",
          "type": "bytes32"
        },
        {
          "internalType": "string",
          "name": "eDataCID",
          "type": "string"
        },
        {
          "internalType": "address",
          "name": "eCreator",
          "type": "address"
        },
        {
          "internalType": "uint256",
          "name": "eTimeStart",
          "type": "uint256"
        },
        {
          "internalType": "uint256",
          "name": "eCapacity",
          "type": "uint256"
        },
        {
          "internalType": "uint256",
          "name": "eDepositAmount",
          "type": "uint256"
        },
        {
          "internalType": "bool",
          "name": "isPaid",
          "type": "bool"
        }
      ],
      "stateMutability": "view",
      "type": "function"
    },
    {
      "inputs": [
        {
          "internalType": "bytes32",
          "name": "eID",
          "type": "bytes32"
        }
      ],
      "name": "withdrawUnclaimedDeposit",
      "outputs": [],
      "stateMutability": "nonpayable",
      "type": "function"
    }
  ],
  "bytecode": "0x608060405234801561001057600080fd5b50611fe8806100206000396000f3fe6080604052600436106100555760003560e01c80630374ab0b1461005a57806314a743cb1461008357806316eb70d1146100ac57806356ac0879146100c8578063785cae65146100f1578063c34a315714610134575b600080fd5b34801561006657600080fd5b50610081600480360381019061007c9190611287565b61015d565b005b34801561008f57600080fd5b506100aa60048036038101906100a59190611222565b610381565b005b6100c660048036038101906100c19190611222565b6104c9565b005b3480156100d457600080fd5b506100ef60048036038101906100ea919061124b565b610769565b005b3480156100fd57600080fd5b5061011860048036038101906101139190611222565b610c71565b60405161012b97969594939291906116eb565b60405180910390f35b34801561014057600080fd5b5061015b60048036038101906101569190611222565b610d68565b005b600033308585856040516020016101789594939291906115e4565b604051602081830303815290604052805190602001209050600033905060608060006040518061012001604052808681526020018b8b8080601f016020809104026020016040519081016040528093929190818152602001838380828437600081840152601f19601f8201169050808301925050505050505081526020018573ffffffffffffffffffffffffffffffffffffffff16815260200189815260200188815260200187815260200184815260200183815260200182151581525060008087815260200190815260200160002060008201518160000155602082015181600101908051906020019061026e92919061106c565b5060408201518160020160006101000a81548173ffffffffffffffffffffffffffffffffffffffff021916908373ffffffffffffffffffffffffffffffffffffffff160217905550606082015181600301556080820151816004015560a0820151816005015560c08201518160060190805190602001906102f09291906110f2565b5060e082015181600701908051906020019061030d9291906110f2565b506101008201518160080160006101000a81548160ff0219169083151502179055509050507f72cbdf72f506a2b046d3007e8161d026f0bb24f192bf4421c849885c93e83746858b8b878c8c8c60405161036d9796959493929190611681565b60405180910390a150505050505050505050565b600080600083815260200190815260200160002090508060020160009054906101000a900473ffffffffffffffffffffffffffffffffffffffff1673ffffffffffffffffffffffffffffffffffffffff163373ffffffffffffffffffffffffffffffffffffffff1614610429576040517f08c379a00000000000000000000000000000000000000000000000000000000081526004016104209061178a565b60405180910390fd5b60005b81600601805490508160ff1610156104c4576104b183836006018360ff1681548110610481577f4e487b7100000000000000000000000000000000000000000000000000000000600052603260045260246000fd5b9060005260206000200160009054906101000a900473ffffffffffffffffffffffffffffffffffffffff16610769565b80806104bc90611b28565b91505061042c565b505050565b6000806000838152602001908152602001600020905061070881600301546104f19190611971565b421115610533576040517f08c379a000000000000000000000000000000000000000000000000000000000815260040161052a9061188a565b60405180910390fd5b8060040154816006018054905010610580576040517f08c379a00000000000000000000000000000000000000000000000000000000081526004016105779061182a565b60405180910390fd5b806005015434146105c6576040517f08c379a00000000000000000000000000000000000000000000000000000000081526004016105bd906118ea565b60405180910390fd5b60005b81600601805490508160ff1610156106c6573373ffffffffffffffffffffffffffffffffffffffff16826006018260ff1681548110610631577f4e487b7100000000000000000000000000000000000000000000000000000000600052603260045260246000fd5b9060005260206000200160009054906101000a900473ffffffffffffffffffffffffffffffffffffffff1673ffffffffffffffffffffffffffffffffffffffff1614156106b3576040517f08c379a00000000000000000000000000000000000000000000000000000000081526004016106aa906118aa565b60405180910390fd5b80806106be90611b28565b9150506105c9565b5080600601339080600181540180825580915050600190039060005260206000200160009091909190916101000a81548173ffffffffffffffffffffffffffffffffffffffff021916908373ffffffffffffffffffffffffffffffffffffffff1602179055507f3fbd20aa09b8b5b3c68747c5c3098b958c14bdb49bb7951e1879225e39cc84fa823360405161075d929190611658565b60405180910390a15050565b600080600084815260200190815260200160002090508060020160009054906101000a900473ffffffffffffffffffffffffffffffffffffffff1673ffffffffffffffffffffffffffffffffffffffff163373ffffffffffffffffffffffffffffffffffffffff1614610811576040517f08c379a00000000000000000000000000000000000000000000000000000000081526004016108089061178a565b60405180910390fd5b60005b81600701805490508160ff161015610911578273ffffffffffffffffffffffffffffffffffffffff16826007018260ff168154811061087c577f4e487b7100000000000000000000000000000000000000000000000000000000600052603260045260246000fd5b9060005260206000200160009054906101000a900473ffffffffffffffffffffffffffffffffffffffff1673ffffffffffffffffffffffffffffffffffffffff1614156108fe576040517f08c379a00000000000000000000000000000000000000000000000000000000081526004016108f59061184a565b60405180910390fd5b808061090990611b28565b915050610814565b50600080600090505b82600601805490508160ff1610156109e0578373ffffffffffffffffffffffffffffffffffffffff16836006018260ff1681548110610982577f4e487b7100000000000000000000000000000000000000000000000000000000600052603260045260246000fd5b9060005260206000200160009054906101000a900473ffffffffffffffffffffffffffffffffffffffff1673ffffffffffffffffffffffffffffffffffffffff1614156109cd578391505b80806109d890611b28565b91505061091a565b508273ffffffffffffffffffffffffffffffffffffffff168173ffffffffffffffffffffffffffffffffffffffff1614610a4f576040517f08c379a0000000000000000000000000000000000000000000000000000000008152600401610a46906117ea565b60405180910390fd5b600015158260080160009054906101000a900460ff16151514610aa7576040517f08c379a0000000000000000000000000000000000000000000000000000000008152600401610a9e9061180a565b60405180910390fd5b81600701819080600181540180825580915050600190039060005260206000200160009091909190916101000a81548173ffffffffffffffffffffffffffffffffffffffff021916908373ffffffffffffffffffffffffffffffffffffffff16021790555060008173ffffffffffffffffffffffffffffffffffffffff168360050154604051610b3690611643565b60006040518083038185875af1925050503d8060008114610b73576040519150601f19603f3d011682016040523d82523d6000602084013e610b78565b606091505b5050905080610bf15782600701805480610bbb577f4e487b7100000000000000000000000000000000000000000000000000000000600052603160045260246000fd5b6001900381819060005260206000200160006101000a81549073ffffffffffffffffffffffffffffffffffffffff021916905590555b80610c31576040517f08c379a0000000000000000000000000000000000000000000000000000000008152600401610c28906118ca565b60405180910390fd5b7fc8c309499abd0993db7c6cf73a1762172a963021e0c393f9e07e81ba5fa48ee88583604051610c62929190611658565b60405180910390a15050505050565b6000602052806000526040600020600091509050806000015490806001018054610c9a90611af6565b80601f0160208091040260200160405190810160405280929190818152602001828054610cc690611af6565b8015610d135780601f10610ce857610100808354040283529160200191610d13565b820191906000526020600020905b815481529060010190602001808311610cf657829003601f168201915b5050505050908060020160009054906101000a900473ffffffffffffffffffffffffffffffffffffffff16908060030154908060040154908060050154908060080160009054906101000a900460ff16905087565b600080600083815260200190815260200160002090508060020160009054906101000a900473ffffffffffffffffffffffffffffffffffffffff1673ffffffffffffffffffffffffffffffffffffffff163373ffffffffffffffffffffffffffffffffffffffff1614610e10576040517f08c379a0000000000000000000000000000000000000000000000000000000008152600401610e079061186a565b60405180910390fd5b600015158160080160009054906101000a900460ff16151514610e68576040517f08c379a0000000000000000000000000000000000000000000000000000000008152600401610e5f906117aa565b60405180910390fd5b62093a808160030154610e7b9190611971565b421015610ebd576040517f08c379a0000000000000000000000000000000000000000000000000000000008152600401610eb49061190a565b60405180910390fd5b806007018054905081600601805490501415610f0e576040517f08c379a0000000000000000000000000000000000000000000000000000000008152600401610f05906117ca565b60405180910390fd5b600081600701805490508260060180549050610f2a9190611a21565b90506000826005015482610f3e91906119c7565b905060018360080160006101000a81548160ff02191690831515021790555060003373ffffffffffffffffffffffffffffffffffffffff1682604051610f8390611643565b60006040518083038185875af1925050503d8060008114610fc0576040519150601f19603f3d011682016040523d82523d6000602084013e610fc5565b606091505b5050905080610fec5760008460080160006101000a81548160ff0219169083151502179055505b8061102c576040517f08c379a00000000000000000000000000000000000000000000000000000000081526004016110239061192a565b60405180910390fd5b7fce4d8ecf57136729aafc55a7a4a309ff3803570e610b7dd075f21613a7c059f9858360405161105d929190611761565b60405180910390a15050505050565b82805461107890611af6565b90600052602060002090601f01602090048101928261109a57600085556110e1565b82601f106110b357805160ff19168380011785556110e1565b828001600101855582156110e1579182015b828111156110e05782518255916020019190600101906110c5565b5b5090506110ee919061117c565b5090565b82805482825590600052602060002090810192821561116b579160200282015b8281111561116a5782518260006101000a81548173ffffffffffffffffffffffffffffffffffffffff021916908373ffffffffffffffffffffffffffffffffffffffff16021790555091602001919060010190611112565b5b509050611178919061117c565b5090565b5b8082111561119557600081600090555060010161117d565b5090565b6000813590506111a881611f6d565b92915050565b6000813590506111bd81611f84565b92915050565b60008083601f8401126111d557600080fd5b8235905067ffffffffffffffff8111156111ee57600080fd5b60208301915083600182028301111561120657600080fd5b9250929050565b60008135905061121c81611f9b565b92915050565b60006020828403121561123457600080fd5b6000611242848285016111ae565b91505092915050565b6000806040838503121561125e57600080fd5b600061126c858286016111ae565b925050602061127d85828601611199565b9150509250929050565b60008060008060006080868803121561129f57600080fd5b600086013567ffffffffffffffff8111156112b957600080fd5b6112c5888289016111c3565b955095505060206112d88882890161120d565b93505060406112e98882890161120d565b92505060606112fa8882890161120d565b9150509295509295909350565b61131081611a55565b82525050565b61132761132282611a55565b611b52565b82525050565b61133681611a67565b82525050565b61134581611a73565b82525050565b60006113578385611960565b9350611364838584611ab4565b61136d83611bde565b840190509392505050565b60006113838261194a565b61138d8185611960565b935061139d818560208601611ac3565b6113a681611bde565b840191505092915050565b60006113be602a83611960565b91506113c982611bfc565b604082019050919050565b60006113e1602383611960565b91506113ec82611c4b565b604082019050919050565b6000611404601983611960565b915061140f82611c9a565b602082019050919050565b6000611427602483611960565b915061143282611cc3565b604082019050919050565b600061144a603283611960565b915061145582611d12565b604082019050919050565b600061146d601483611960565b915061147882611d61565b602082019050919050565b6000611490601b83611960565b915061149b82611d8a565b602082019050919050565b60006114b3602c83611960565b91506114be82611db3565b604082019050919050565b60006114d6601483611960565b91506114e182611e02565b602082019050919050565b60006114f9601b83611960565b915061150482611e2b565b602082019050919050565b600061151c600083611955565b915061152782611e54565b600082019050919050565b600061153f602783611960565b915061154a82611e57565b604082019050919050565b6000611562601983611960565b915061156d82611ea6565b602082019050919050565b6000611585602f83611960565b915061159082611ecf565b604082019050919050565b60006115a8602e83611960565b91506115b382611f1e565b604082019050919050565b6115c781611a9d565b82525050565b6115de6115d982611a9d565b611b76565b82525050565b60006115f08288611316565b6014820191506116008287611316565b60148201915061161082866115cd565b60208201915061162082856115cd565b60208201915061163082846115cd565b6020820191508190509695505050505050565b600061164e8261150f565b9150819050919050565b600060408201905061166d600083018561133c565b61167a6020830184611307565b9392505050565b600060c082019050611696600083018a61133c565b81810360208301526116a981888a61134b565b90506116b86040830187611307565b6116c560608301866115be565b6116d260808301856115be565b6116df60a08301846115be565b98975050505050505050565b600060e082019050611700600083018a61133c565b81810360208301526117128189611378565b90506117216040830188611307565b61172e60608301876115be565b61173b60808301866115be565b61174860a08301856115be565b61175560c083018461132d565b98975050505050505050565b6000604082019050611776600083018561133c565b61178360208301846115be565b9392505050565b600060208201905081810360008301526117a3816113b1565b9050919050565b600060208201905081810360008301526117c3816113d4565b9050919050565b600060208201905081810360008301526117e3816113f7565b9050919050565b600060208201905081810360008301526118038161141a565b9050919050565b600060208201905081810360008301526118238161143d565b9050919050565b6000602082019050818103600083015261184381611460565b9050919050565b6000602082019050818103600083015261186381611483565b9050919050565b60006020820190508181036000830152611883816114a6565b9050919050565b600060208201905081810360008301526118a3816114c9565b9050919050565b600060208201905081810360008301526118c3816114ec565b9050919050565b600060208201905081810360008301526118e381611532565b9050919050565b6000602082019050818103600083015261190381611555565b9050919050565b6000602082019050818103600083015261192381611578565b9050919050565b600060208201905081810360008301526119438161159b565b9050919050565b600081519050919050565b600081905092915050565b600082825260208201905092915050565b600061197c82611a9d565b915061198783611a9d565b9250827fffffffffffffffffffffffffffffffffffffffffffffffffffffffffffffffff038211156119bc576119bb611b80565b5b828201905092915050565b60006119d282611a9d565b91506119dd83611a9d565b9250817fffffffffffffffffffffffffffffffffffffffffffffffffffffffffffffffff0483118215151615611a1657611a15611b80565b5b828202905092915050565b6000611a2c82611a9d565b9150611a3783611a9d565b925082821015611a4a57611a49611b80565b5b828203905092915050565b6000611a6082611a7d565b9050919050565b60008115159050919050565b6000819050919050565b600073ffffffffffffffffffffffffffffffffffffffff82169050919050565b6000819050919050565b600060ff82169050919050565b82818337600083830152505050565b60005b83811015611ae1578082015181840152602081019050611ac6565b83811115611af0576000848401525b50505050565b60006002820490506001821680611b0e57607f821691505b60208210811415611b2257611b21611baf565b5b50919050565b6000611b3382611aa7565b915060ff821415611b4757611b46611b80565b5b600182019050919050565b6000611b5d82611b64565b9050919050565b6000611b6f82611bef565b9050919050565b6000819050919050565b7f4e487b7100000000000000000000000000000000000000000000000000000000600052601160045260246000fd5b7f4e487b7100000000000000000000000000000000000000000000000000000000600052602260045260246000fd5b6000601f19601f8301169050919050565b60008160601b9050919050565b7f4f6e6c79206576656e742063726561746f722063616e20636865636b2d696e2060008201527f617474656e646565732100000000000000000000000000000000000000000000602082015250565b7f556e636c61696d6564206465706f73697420616c72656164792077697468647260008201527f61776e0000000000000000000000000000000000000000000000000000000000602082015250565b7f4e6f20756e636c61696d6564206465706f736974206c65667400000000000000600082015250565b7f596f7520646964206e6f7420726567697374657220666f72207468697320657660008201527f656e742100000000000000000000000000000000000000000000000000000000602082015250565b7f4576656e74206f776e657220616c726561647920636c61696d6564207468652060008201527f72656d61696e696e67206465706f736974210000000000000000000000000000602082015250565b7f4d61782063617061636974792072656163686564000000000000000000000000600082015250565b7f596f752061726520616c726561647920636865636b65642d696e210000000000600082015250565b7f4465706f7369742063616e206f6e6c7920626520636c61696d6564206d79206560008201527f76656e742063726561746f720000000000000000000000000000000000000000602082015250565b7f546f6f206c61746520746f207265676973746572000000000000000000000000600082015250565b7f596f752061726520616c72656164792072656769737465726564210000000000600082015250565b50565b7f4661696c656420746f20636865636b2d696e20617474656e6465652c2074727960008201527f20616761696e2e00000000000000000000000000000000000000000000000000602082015250565b7f4e6f7420656e6f7567682045544820746f2070726f6365656400000000000000600082015250565b7f43616e6e6f7420636c61696d206465706f73697420756e74696c206f6e65207760008201527f65656b20686173207061737365642e0000000000000000000000000000000000602082015250565b7f4661696c656420746f2070726f6365737320756e636c61696d6564206465706f60008201527f7369742c2074727920616761696e000000000000000000000000000000000000602082015250565b611f7681611a55565b8114611f8157600080fd5b50565b611f8d81611a73565b8114611f9857600080fd5b50565b611fa481611a9d565b8114611faf57600080fd5b5056fea2646970667358221220954d555e31ecf8b14ad95db7dd05404f2210b7e3537e690a774a96382449653c64736f6c63430008040033",
  "linkReferences": {},
  "deployedLinkReferences": {}
}